:030000000201D228
:0C01D200787FE4F6D8FD75810C02000374
:1000EB00182424242424241800181C181818181851
:1000FB00001E30301C06063E001E30301C30301EF9
:10010B0000303834323E3030001E021E3030301E8C
:10011B00001C061E3636361C003F3018180C0C0C13
:10012B00001C36361C36361C001C3636363C301C52
:10000300120175C2A3E4F50930A155E4F50AE4F53C
:1000130008D2A5E50975F008A424EBF582E43400C1
:10002300F583E5822508F582E43583F583E493FFC0
:100033007E0012013BC2A5AF0812008A30A004C2A1
:10004300A380007FF47E011201C0D2A30508E50856
:10005300C3940840BC050AE50AC3940A40B0801B58
:10006300D2A530A00DC2A37FF47E011201C0D2A39A
:100073008002D2A37F2C7E011201C00509E509C3CA
:07008300940A40840200080A
:1001A500E4FDFCC3ED9FEC9E501000790B7BBEDB9C
:0A01B500FED9FC0DBD00010C80E92D
:0101BF00221D
:10017500750CFEE4F50BE4FA850C80AF0C7801EF05
:1001850008800123D8FDF50C7F647E001201A50AC5
:0F019500BA08E5050BE50BC3940340DA7580FF4C
:0101A4002238
:1001C000E4FDFCC3ED9FEC9E50070DBD00010C80CB
:0101D000F23C
:0101D100220B
:10013B00EFF4F50CEEF4F50BE4FBAE0BE50CA803BA
:10014B00088005CEC313CE13D8F91392B5C2B67F70
:10015B00017E001201C0D2B61201C0C2B41201C09E
:09016B00D2B41201C00BBB08D193
:010174002268
:10008A00EFB40800505A900097F82828730200AF7E
:10009A000200B50200BB0200C10200C70200D00282
:1000AA0000D90200E2C2B3C2B28016C2B3C2B280A1
:1000BA0019C2B3C2B2801CC2B3C2B2801FC2B3D2C9
:1000CA00B2C2A7C2A622C2B3D2B2C2A7D2A622C2C3
:1000DA00B3D2B2D2A7C2A622C2B3D2B2D2A7D2A6F2
:0100EA0022F3
:00000001FF
