:100649009104C0F9A4B0999282F880908883C6A1D8
:10065900868EBF8927FEFDFBF7EFDFBF7FFF881678
:0B0669000000000000000000812605DA
:1005BB001207C11205EB7815EFF21204701206A1A7
:1005CB0012083290000E12015EAAF0F91201961277
:1005DB0007D812039C7841E2FF04F212052280F245
:1007C10053877F75985053890F438920758BFD7529
:0707D1008DFDC2ABD28E22A8
:0A061B007800EBF208EAF208E9F2B9
:10062500E4FFEFC39D501C7800E2FB08E2FA08E204
:10063500F98F82758300120131F5993099FDC299C0
:030645000F80DF44
:01064800228F
:10077300E4FDFCC3ED9FEC9E501000790B7BBEDBC8
:0A078300FED9FC0DBD00010C80E959
:01078D002249
:0D019C007845EBF208EAF208E9F208EDF20E
:1001A900E408F27849E2FFC39408748094805052BD
:1001B9007580FFC2A0C374079FFF18E2FEA8070855
:1001C9008002C313D8FC30E0087849E22427F8807C
:1001D90002782FE2F4F580D2A07845E2FB08E2FA32
:1001E90008E2F97849E2F5827583001201312404A5
:1001F900F8E2F5807F017E001207737849E204F284
:0202090080A1D2
:01020B0022D0
:10047000C2A3E4F598D2A3FAEAC3941074809480DE
:10048000501674042AF8E2F599C2993099FD7F90CC
:100490007E011207730A80E07814E2F599C2993060
:0C04A00099FD7814E2F599C2993099FD9D
:0104AC00222D
:1005EB007FFE1203ED7842EFF27F647E00120773F9
:1005FB00E2C394FF748094805006E204F2E280051B
:0F060B0078427401F2FD7FFE1205897842E2FF0A
:01061A0022BD
:1002E100EF75F06484781BF2EF75F06484AEF0EE84
:1002F10075F00A8408F2EE75F00A8408E5F0F278E8
:100301001BE2D3940074809480400A7BFE7A0079CA
:10031100167D07802B781BE2701508E2D3940074D8
:10032100809480400A7BFE7A0079167D03801178E3
:100331001BE2700F08E2700B7BFE7A0079167D01DB
:0403410012019C22E7
:10027A0012083290000C12015EAAF0F912019612CD
:10028A0008321201187816F212083290000112018F
:10029A00317817F2087410F2120832900002120133
:1002AA00317819F2120832900003120131781AF2E9
:1002BA00087410F2120832900004120131781CF20C
:1002CA00120832900005120131781DF27BFE7A0085
:0702DA0079167DFF02019C73
:10020C007843EFF21206EF781BE2D39400748094DB
:10021C0080400A7BFE7A0079167D07802B781BE2E2
:10022C00701508E2D3940074809480400A7BFE7AA7
:10023C000079167D038011781BE2700F08E2700BB9
:10024C007BFE7A0079167D0112019C7843E2FF75E2
:10025C00F06484781BF2EF75F06484AFF0EF75F006
:0E026C000A8408F2EF75F00A8408E5F0F22229
:04008F007843EFF2D1
:10009300E408F27844E2C3940574809480504A786B
:1000A3001BE2940074809480400A7BFE7A007916E8
:1000B3007D07802B781BE2701508E2D394007480CF
:1000C3009480400A7BFE7A0079167D038011781BA9
:1000D300E2700F08E2700B7BFE7A0079167D011245
:1000E300019C7844E204F280AA7843E2FF1204E818
:1000F3007803EFF2E2FF75F06484781BF2EF75F09A
:100103006484AFF0EF75F00A8408F2EF75F00A84A7
:0401130008E5F0F219
:0101170022C5
:10039C002090127830E264017005782604F22278FD
:1003AC00307401F2222091117830E26402700478EA
:1003BC0026800278307402F2222092117830E264A6
:1003CC000370047826800278307403F22220931094
:1003DC007830E2640470047826800278307404F279
:0103EC0022EE
:100522007842EFF27826E214601D14601014601015
:1005320014601B14701D7815E2FF0202E102027AB8
:100542007842E2FF02020C7815E2FF1202E17F011B
:0405520012008F22E2
:0708230000750A0BD50AFD68
:01082A0022AB
:07082B00D2A200D2A10022BD
:0D07FC00D2A100D2A2120823C2A20208233B
:0D080900C2A200D2A1120823D2A20208232D
:1007A800C2A100300004C2A28002D2A200D2A112CB
:0907B8000823C2A100D2A2002214
:05078E007FA0120675BA
:10079300D2A112082330A208C2A100120809C32261
:0507A300C2A100D322F9
:10067500E4FEEEC39408748094805019C2A100EF83
:1006850030E705D2A2008003C2A200D2A100EF2567
:0B069500E0FF0E80DDC2A100D2A20039
:0106A0002237
:1004AD00C2A100D2A200E4FEEEFD7C00C39408744C
:1004BD008094805025D2A100EF30A2054401FF8029
:1004CD000354FEFF00C2A100C3ED9407EC648094B9
:0A04DD00805004EF25E0FF0E80CEF2
:0104E70022F2
:1006C900AB071207FC12078E400122AF0312067511
:1006D900120793400122AF051206751207934001D4
:0606E90022120809D322D1
:02055600AD07EF
:100558001207FC12078E40037F0022AF05120675B2
:10056800C2001207A81207FC7FA112067512079392
:1005780040037F00221204ADC2001207A812080926
:010588002250
:100589007843EFF208EDF21207FC7FA0120675120C
:100599000793400280187843E2FF12067512079309
:1005A9004002800A7844E2FF120675120793120886
:0205B900092215
:0403ED007843EFF270
:1003F1001207FC7FA012067512079340037F0022AB
:100401007843E2FF120675C2001207A81207FC7FAB
:10041100A112067512079340037F00221204AD78E2
:0F04210044EFF2C2001207A81208097844E2FF64
:0104300022A9
:03000000020003F8
:0C000300787FE4F6D8FD75812002004AE9
:0E07EE0080828486888A8C81838587898B8DA2
:070832007BFE7A0079312200
:10075700E4FEEEC3940874809480500FC2A5EF1393
:0B07670092A4EFC313FFD2A50E80E7A1
:010772002264
:0D073600A3E493FFE2C454F0FE08E24EFD80
:10074300C2A600C2A500D2A600120757AF05120722
:0407530057C2A622C1
:10043100E4FDC2A600C2A500D2A600120757E4FF40
:10044100EFC39408748094805011C2A5EDC313FDCD
:1004510030A4034480FDD2A50F80E5C2A600C2A648
:0E046100C2A500D2A500C2A400D2A400AF051F
:01046F00226A
:100345007BFF7A0779F5E4FCECC394037480948011
:100355005017120118FF12043174422CF8EFF27491
:100365000129F9E43AFA0C80DF7844E2FFC4540F1E
:100375007831F2EF540F08F27843E2FFC4540F7856
:1003850033F2EF540F08F27842E2FFC4540F783588
:06039500F2EF540F08F224
:01039B00223F
:10071300E4FD7F8E1207439007EEE493FF783B12CC
:10072300073A783912073678371207367D807F8E7D
:0307330002074377
:1006A10078377402F20804F2087405F2087409F24A
:1006B100087405F2E408F2087403F2087445F208BC
:0806C1007407F2087413F22221
:0C08160075086C750991D509FDD508FA2C
:0108220022B3
:1007D8001207FC7F901206751207937F4312067565
:0607E8001207930208094C
:0404E8007845EFF272
:1004EC001207FC7F901206751207937845E2444080
:1004FC00FF1206751207931207FC7F9112067512F4
:10050C0007931204AD7846EFF2D2001207A8120836
:05051C00097846E2FF32
:0105210022B7
:1006EF007844EFF21207FC7F901206751207937F82
:1006FF00401206751207937844E2FF12067512072F
:04070F009302080940
:10000F000205BBE493A3F8E493A34003F68001F247
:10001F0008DFF48029E493A3F85407240CC8C333F2
:10002F00C4540F4420C8834004F456800146F6DFC1
:10003F00E4800B0102040810204080900649E47E02
:10004F00019360BCA3FF543F30E509541FFEE493B6
:10005F00A360010ECF54C025E060A840B8E493A37D
:10006F00FAE493A3F8E493A3C8C582C8CAC583CAA8
:10007F00F0A3C8C582C8CAC583CADFE9DEE780BE60
:010674000085
:10011800BB010689828A83E0225002E722BBFE02E5
:09012800E32289828A83E4932218
:10013100BB010CE58229F582E5833AF583E0225083
:1001410006E92582F8E622BBFE06E92582F8E222CD
:0D015100E58229F582E5833AF583E49322E7
:10015E00BB0110E58229F582E5833AF583E0F5F0DF
:10016E00A3E0225009E92582F886F008E622BBFEBC
:10017E000AE92582F8E2F5F008E222E5832AF58302
:08018E00E993F5F0A3E99322C7
:060196008A838982E473F4
:00000001FF
