:10053000A0210024544541574A58243030303030EF
:1005400030303030303030303030303030303030AB
:10055000303030249122C0F9A4B0999282F8809072
:100560008883C6A1868EBF8945FEFDFBF7EFDFBFFE
:0F0570007FFF8834000000000000000081440578
:10061B00120A8812088E7833EFF27BFE7A00793C4F
:10062B001206E61204E07BFE7A0079007D211208A7
:10063B00601207921208E5120B0D90000E1201F9D1
:10064B00AAF0F912023F120A9F1205CF7867E2FF58
:07065B0004F21207C780F250
:100A880053877F75985053890F438920758BFD755F
:070A98008DFDC2ABD28E22DE
:0A0860007868EBF208EAF208E9F20A
:10086A00E4FFEFC39D501C7868E2FB08E2FA08E255
:10087A00F98F827583001201AAF5993099FDC29900
:03088A000F80DFFD
:01088D002248
:1004E000E4FF743C2FF8E2C4540FFED39409400695
:1004F000EE2437FE800B743C2FF8E2C4540F2430F6
:10050000FEEF25E02408F8EEF2743C2FF8E2540FD9
:10051000FED394094006EE2437FE8006E2540F24F1
:0F05200030FEEF25E02409F8EEF20FEFB408B338
:01052F0022A9
:100A0500E4FDFCC3ED9FEC9E501000790B7BBEDB33
:0A0A1500FED9FC0DBD00010C80E9C4
:010A1F0022B4
:0D034B00786BEBF208EAF208E9F208EDF237
:10035800E408F2786FE2FFC3940850527580FFC238
:10036800A0C374079FFF18E2FEA807088002C31302
:10037800D8FC30E008786FE22445F88002784DE236
:10038800F4F580D2A0786BE2FB08E2FA08E2F9788B
:100398006FE2F5827583001201AA2422F8E2F58043
:0E03A8007F017E00120A05786FE204F280A544
:0103B6002224
:10079200C2A3E4F598D2A3FA74222AF8E2F599C228
:1007A200993099FD7F647E00120A050AEAB40FE8C7
:1007B200782AE2F599C2993099FD782AE2F599C230
:0407C200993099FDD4
:0107C6002210
:10088E007FFE1206627868EFF27F647E00120A0520
:10089E00E2C394FF5006E204F2E280057868740128
:0B08AE00F2FD7FFE12082E7868E2FFCA
:0108B900221C
:10048400EF75F064847839F2EF75F06484AEF0EEC1
:1004940075F00A8408F2EE75F00A8408E5F0F27843
:1004A40039E2D39400400A7BFE7A0079347D0780D8
:1004B400277839E2701108E2D39400400A7BFE7A6F
:1004C4000079347D0380117839E2700F08E2700BF3
:0C04D4007BFE7A0079347D0112034B227C
:1003B700120B0D90000C1201F9AAF0F912023F126C
:1003C7000B0D1201917834F2120B0D9000011201FE
:1003D700AA7835F2087410F2120B0D900002120180
:1003E700AA7837F2120B0D9000031201AA7838F29F
:1003F700087410F2120B0D9000041201AA783AF259
:10040700120B0D9000051201AA783BF27BFE7A00D1
:0704170079347DFF02034B65
:10041E007869EFF212097E7839E2D39400400A7BB4
:10042E00FE7A0079347D0780277839E2701108E270
:10043E00D39400400A7BFE7A0079347D03801178D4
:10044E0039E2700F08E2700B7BFE7A0079347D0181
:10045E0012034B7869E2FF75F064847839F2EF7518
:10046E00F06484AFF0EF75F00A8408F2EF75F00ACD
:06047E008408E5F0F22203
:0402D1007869EFF267
:1002D500E408F27839E2D39400400A7BFE7A00798B
:1002E500347D0780277839E2701108E2D394004005
:1002F5000A7BFE7A0079347D0380117839E2700F2C
:1003050008E2700B7BFE7A0079347D0112034B788D
:100315006AE204F2E2C3940540B97869E2FF120784
:10032500217821EFF2E2FF75F064847839F2EF75F8
:10033500F06484AFF0EF75F00A8408F2EF75F00A07
:050345008408E5F0F260
:01034A002290
:1005CF00209010784EE2B4010478448002784E7483
:1005DF0001F222209110784EE2B402047844800296
:1005EF00784E7402F222209210784EE2B40304780F
:1005FF00448002784E7403F22220930F784EE2B4B7
:0C060F00040478448002784E7404F22247
:1007C7007868EFF27844E214601D1460101460102A
:1007D70014601B14701D7833E2FF0204840203B710
:1007E7007868E2FF02041E7833E2FF1204847F0177
:0407F7001202D122F7
:040A3B007F057E00B5
:100A3F00EF1FAA0670011E4A600BE4FDEDC3940C74
:050A4F0050EE0D80F7E0
:010A5400227F
:0209E600A9075F
:1009E800E4FBC2A7E91392A7120A3BD2A7E9C313F3
:0D09F800F90BEBB408EC7F057E00020A3F0E
:100A2000E4FBC2A7ECC313FCD2A730A7034480FCAD
:0A0A3000120A3B0BEBB408EAAF0416
:010A3A002299
:10090D00C200D2A77F0C7E00120A3FC2A77F507E85
:10091D0000120A3FD2A77F0A7E00120A3FA2A792B9
:06092D0000120A3BA200CB
:0109330022A1
:0A06E6007868EBF208EAF208E9F286
:1006F000E408F212090D7F331209E6E4F2120A202F
:100700007868E2FB08E2FA08E2F908E2F58275830C
:1007100000EF1201D7786BE204F2E2C3940840DDE7
:0107200022B6
:1006A60012090D7FCC1209E67F441209E67FBC7E53
:1006B60002120A3F12090D7FCC1209E67FBE12090B
:1006C600E6120A20A907120A20EF540FFEE9FFFDE1
:1006D600AC06E412010EE4FBFA7980783D020003D1
:070AFE0000750A0BD50AFD8B
:010B050022CD
:070B0600D2A200D2A10022DF
:0D0AD700D2A100D2A2120AFEC2A2020AFEA3
:0D0AE400C2A200D2A1120AFED2A2020AFE96
:100A6F00C2A100300004C2A28002D2A200D2A11201
:090A7F000AFEC2A100D2A200226D
:050A55007FA012095A08
:100A5A00D2A1120AFE30A208C2A100120AE4C322DD
:050A6A00C2A100D3222F
:10095A00E4FEC2A100EF30E705D2A2008003C2A2E2
:10096A0000D2A100EF25E0FF0EEEB408E5C2A10017
:03097A00D2A20006
:01097D002257
:1008BA00C2A100D2A200E4FED2A100EF30A20544F8
:1008CA0001FF800354FEFF00C2A100EEC39407504B
:0A08DA0004EF25E0FF0EEEB408DE87
:0108E40022F1
:10093400AB07120AD7120A55400122AF0312095A13
:10094400120A5A400122AF0512095A120A5A4001EA
:0609540022120AE4D32286
:0207FB00AD0748
:1007FD00120AD7120A5540037F0022AF0512095A7B
:10080D00C200120A6F120AD77FA112095A120A5A90
:10081D0040037F00221208BAC200120A6F120AE4C6
:01082D0022A8
:10082E007869EFF208EDF2120AD77FA012095A1278
:10083E000A5A400280187869E2FF12095A120A5ABF
:10084E004002800A786AE2FF12095A120A5A120A04
:02085E00E42292
:040662007869EFF2D2
:10066600120AD77FA012095A120A5A40037F0022A3
:100676007869E2FF12095AC200120A6F120AD77F7E
:10068600A112095A120A5A40037F00221208BA78A8
:0F0696006AEFF2C200120A6F120AE4786AE2FFFA
:0106A5002232
:03000000020245B4
:0C024500787FE4F6D8FD75812002028C61
:0E0AC90080828486888A8C81838587898B8DC4
:070B0D007BFE7A00795722FC
:100AB500E4FEC2A5EF1392A4EFC313FFD2A50EEE79
:030AC500B408EF83
:010AC800220B
:0D09C500A3E493FFE2C454F0FE08E24EFDEF
:1009D200C2A600C2A500D2A600120AB5AF05120A2D
:0409E200B5C2A622D2
:10075B00E4FDC2A600C2A500D2A600120AB5E4FFB2
:10076B00C2A5EDC313FD30A4034480FDD2A50FEF4A
:10077B00B408EDC2A600C2A6C2A500D2A500C2A4B1
:06078B0000D2A400AF053E
:010791002245
:100580007BFF7A0A79D0E4FC120191FF12075B74B9
:10059000682CF8EFF2740129F9E43AFA0CECB40390
:1005A000E7786AE2FFC4540F7857F2EF540F08F26D
:1005B0007869E2FFC4540F7859F2EF540F08F278CB
:0E05C00068E2FFC4540F785BF2EF540F08F2AC
:0105CE00220A
:1009A200E4FD7F8E1209D2900AC9E493FF786112A6
:1009B20009C9785F1209C5785D1209C57D807F8EED
:0309C2000209D255
:1008E500785D7402F20804F2087405F2087409F2DE
:1008F500087405F2E408F2087405F2087480F20839
:080905007409F20874A2F22249
:0C0AF10075086C750991D509FDD508FA4F
:010AFD0022D6
:100A9F00120AD77F9012095A120A5A7F4312095A23
:060AAF00120A5A020AE4DB
:04072100786BEFF210
:10072500120AD77F9012095A120A5A786BE244408E
:10073500FF12095A120A5A120AD77F9112095A1240
:100745000A5A1208BA786CEFF2D200120A6F120A2E
:05075500E4786CE2FFF6
:01075A00227C
:10097E00786AEFF2120AD77F9012095A120A5A7F3A
:10098E004012095A120A5A786AE2FF12095A120ADA
:04099E005A020AE40B
:10000300EC4D6011E8497017ED33EC3304600DE4F7
:10001300FCFFFEFD22E933E8330470F802017C1291
:10002300014758046009E4CC248150062850090292
:100033000186284003020183C0E0EB4A7044B98083
:1000430006D0E0FB020172EF4E701CBD8008EBFF8F
:10005300EAFEE9FD80EBE98DF0A4FEE5F00200EC99
:10006300E9CDF9EAFEEBFFEF89F0A4FCE5F0CE89D8
:10007300F0A42EFFE435F0CD89F0A42DFEE435F095
:100083008067EF4E7005BD80D780C3EF8BF0A4ACC3
:10009300F0EE8BF0A42CFCE435F0F8EF8AF0A42CFE
:1000A300E5F038FCE433CB8DF0A42CFCE5F03BF811
:1000B300EE8AF0A42CFCE5F038F8E433CF89F0A401
:1000C3002CFCE5F038CF3400CE89F0A42FFFE5F007
:1000D3003EFEE433C98DF0A42EFEE5F039CD8AF05F
:1000E300A42FFFE5F03EFEE43DFD33D0E0FB5007D7
:1000F3000BBB000F020186EC2CFCEF33FFEE33FE4B
:06010300ED33FD02015E78
:1001090075F020800E75F010800575F0087D007E71
:10011900007F003392D530D503120231EC33401001
:10012900EF33FFEE33FEED33FDEC33FCD5F0ED227A
:0E013900E5F0247EA2D513CC92E7CDCEFF22B6
:10014700E9D2E7C933E833F892D5EDD2E7CD33ECFE
:0701570033FC5002B2D52277
:10015E00EC30E7100FBF000C0EBE00080DBD000402
:10016E000BEB6014A2D5EB13FCED92E7FD2274FFAE
:10017E00FCFDFEFF22E480F8A2D574FF13FC7D8007
:03018E00E480EF1B
:1002510002061BE493A3F8E493A34003F68001F2A2
:1002610008DFF48029E493A3F85407240CC8C333AE
:10027100C4540F4420C8834004F456800146F6DF7D
:10028100E4800B0102040810204080900530E47ED8
:10029100019360BCA3FF543F30E509541FFEE49372
:1002A100A360010ECF54C025E060A840B8E493A339
:1002B100FAE493A3F8E493A3C8C582C8CAC583CA64
:1002C100F0A3C8C582C8CAC583CADFE9DEE780BE1C
:01057F00007B
:10019100BB010689828A83E0225002E722BBFE026C
:0901A100E32289828A83E493229F
:1001AA00BB010CE58229F582E5833AF583E022500A
:1001BA0006E92582F8E622BBFE06E92582F8E22254
:0D01CA00E58229F582E5833AF583E493226E
:1001D700F8BB010DE58229F582E5833AF583E8F05E
:1001E700225006E92582C8F622BBFE05E92582C80A
:0201F700F222F2
:1001F900BB0110E58229F582E5833AF583E0F5F044
:10020900A3E0225009E92582F886F008E622BBFE20
:100219000AE92582F8E2F5F008E222E5832AF58366
:08022900E993F5F0A3E993222B
:0E023100C3E49FFFE49EFEE49DFDE49CFC22DE
:06023F008A838982E4734A
:00000001FF
